{
  "contractName": "RealEstate",
  "abi": [
    {
      "inputs": [],
      "stateMutability": "nonpayable",
      "type": "constructor"
    },
    {
      "inputs": [],
      "name": "ContractMetadataUnauthorized",
      "type": "error"
    },
    {
      "anonymous": false,
      "inputs": [
        {
          "indexed": false,
          "internalType": "string",
          "name": "prevURI",
          "type": "string"
        },
        {
          "indexed": false,
          "internalType": "string",
          "name": "newURI",
          "type": "string"
        }
      ],
      "name": "ContractURIUpdated",
      "type": "event"
    },
    {
      "anonymous": false,
      "inputs": [
        {
          "indexed": true,
          "internalType": "uint256",
          "name": "id",
          "type": "uint256"
        },
        {
          "indexed": true,
          "internalType": "address",
          "name": "owner",
          "type": "address"
        },
        {
          "indexed": false,
          "internalType": "uint256",
          "name": "price",
          "type": "uint256"
        }
      ],
      "name": "PropertyListed",
      "type": "event"
    },
    {
      "anonymous": false,
      "inputs": [
        {
          "indexed": true,
          "internalType": "uint256",
          "name": "id",
          "type": "uint256"
        },
        {
          "indexed": true,
          "internalType": "address",
          "name": "oldOwner",
          "type": "address"
        },
        {
          "indexed": true,
          "internalType": "address",
          "name": "newOwner",
          "type": "address"
        },
        {
          "indexed": false,
          "internalType": "uint256",
          "name": "price",
          "type": "uint256"
        }
      ],
      "name": "PropertyResold",
      "type": "event"
    },
    {
      "anonymous": false,
      "inputs": [
        {
          "indexed": true,
          "internalType": "uint256",
          "name": "id",
          "type": "uint256"
        },
        {
          "indexed": true,
          "internalType": "address",
          "name": "oldOwner",
          "type": "address"
        },
        {
          "indexed": true,
          "internalType": "address",
          "name": "newOwner",
          "type": "address"
        },
        {
          "indexed": false,
          "internalType": "uint256",
          "name": "price",
          "type": "uint256"
        }
      ],
      "name": "PropertySold",
      "type": "event"
    },
    {
      "anonymous": false,
      "inputs": [
        {
          "indexed": true,
          "internalType": "uint256",
          "name": "productId",
          "type": "uint256"
        },
        {
          "indexed": true,
          "internalType": "address",
          "name": "reviewer",
          "type": "address"
        },
        {
          "indexed": false,
          "internalType": "uint256",
          "name": "rating",
          "type": "uint256"
        },
        {
          "indexed": false,
          "internalType": "string",
          "name": "comment",
          "type": "string"
        }
      ],
      "name": "ReviewAdded",
      "type": "event"
    },
    {
      "anonymous": false,
      "inputs": [
        {
          "indexed": true,
          "internalType": "uint256",
          "name": "productId",
          "type": "uint256"
        },
        {
          "indexed": true,
          "internalType": "uint256",
          "name": "reviewIndex",
          "type": "uint256"
        },
        {
          "indexed": true,
          "internalType": "address",
          "name": "liker",
          "type": "address"
        },
        {
          "indexed": false,
          "internalType": "uint256",
          "name": "likes",
          "type": "uint256"
        }
      ],
      "name": "ReviewLiked",
      "type": "event"
    },
    {
      "inputs": [],
      "name": "contractURI",
      "outputs": [
        {
          "internalType": "string",
          "name": "",
          "type": "string"
        }
      ],
      "stateMutability": "view",
      "type": "function",
      "constant": true
    },
    {
      "inputs": [],
      "name": "deployer",
      "outputs": [
        {
          "internalType": "address",
          "name": "",
          "type": "address"
        }
      ],
      "stateMutability": "view",
      "type": "function",
      "constant": true
    },
    {
      "inputs": [],
      "name": "propertyIndex",
      "outputs": [
        {
          "internalType": "uint256",
          "name": "",
          "type": "uint256"
        }
      ],
      "stateMutability": "view",
      "type": "function",
      "constant": true
    },
    {
      "inputs": [],
      "name": "reviewsCounter",
      "outputs": [
        {
          "internalType": "uint256",
          "name": "",
          "type": "uint256"
        }
      ],
      "stateMutability": "view",
      "type": "function",
      "constant": true
    },
    {
      "inputs": [
        {
          "internalType": "string",
          "name": "_uri",
          "type": "string"
        }
      ],
      "name": "setContractURI",
      "outputs": [],
      "stateMutability": "nonpayable",
      "type": "function"
    },
    {
      "inputs": [
        {
          "internalType": "address",
          "name": "owner",
          "type": "address"
        },
        {
          "internalType": "uint256",
          "name": "price",
          "type": "uint256"
        },
        {
          "internalType": "string",
          "name": "_propertyTitle",
          "type": "string"
        },
        {
          "internalType": "string",
          "name": "_category",
          "type": "string"
        },
        {
          "internalType": "string",
          "name": "_images",
          "type": "string"
        },
        {
          "internalType": "string",
          "name": "_propertyAddress",
          "type": "string"
        },
        {
          "internalType": "string",
          "name": "_description",
          "type": "string"
        }
      ],
      "name": "listProperty",
      "outputs": [
        {
          "internalType": "uint256",
          "name": "",
          "type": "uint256"
        }
      ],
      "stateMutability": "nonpayable",
      "type": "function"
    },
    {
      "inputs": [
        {
          "internalType": "address",
          "name": "owner",
          "type": "address"
        },
        {
          "internalType": "uint256",
          "name": "productId",
          "type": "uint256"
        },
        {
          "internalType": "string",
          "name": "_propertyTitle",
          "type": "string"
        },
        {
          "internalType": "string",
          "name": "_category",
          "type": "string"
        },
        {
          "internalType": "string",
          "name": "_images",
          "type": "string"
        },
        {
          "internalType": "string",
          "name": "_propertyAddress",
          "type": "string"
        },
        {
          "internalType": "string",
          "name": "_description",
          "type": "string"
        }
      ],
      "name": "updateProperty",
      "outputs": [
        {
          "internalType": "uint256",
          "name": "",
          "type": "uint256"
        }
      ],
      "stateMutability": "nonpayable",
      "type": "function"
    },
    {
      "inputs": [
        {
          "internalType": "address",
          "name": "owner",
          "type": "address"
        },
        {
          "internalType": "uint256",
          "name": "productId",
          "type": "uint256"
        },
        {
          "internalType": "uint256",
          "name": "price",
          "type": "uint256"
        }
      ],
      "name": "updatePrice",
      "outputs": [
        {
          "internalType": "string",
          "name": "",
          "type": "string"
        }
      ],
      "stateMutability": "nonpayable",
      "type": "function"
    },
    {
      "inputs": [
        {
          "internalType": "uint256",
          "name": "id",
          "type": "uint256"
        },
        {
          "internalType": "address",
          "name": "buyer",
          "type": "address"
        }
      ],
      "name": "buyProperty",
      "outputs": [],
      "stateMutability": "payable",
      "type": "function",
      "payable": true
    },
    {
      "inputs": [],
      "name": "getAllProperty",
      "outputs": [
        {
          "components": [
            {
              "internalType": "uint256",
              "name": "productID",
              "type": "uint256"
            },
            {
              "internalType": "address",
              "name": "owner",
              "type": "address"
            },
            {
              "internalType": "uint256",
              "name": "price",
              "type": "uint256"
            },
            {
              "internalType": "string",
              "name": "propertyTitle",
              "type": "string"
            },
            {
              "internalType": "string",
              "name": "category",
              "type": "string"
            },
            {
              "internalType": "string",
              "name": "images",
              "type": "string"
            },
            {
              "internalType": "string",
              "name": "propertyAddress",
              "type": "string"
            },
            {
              "internalType": "string",
              "name": "description",
              "type": "string"
            },
            {
              "internalType": "address[]",
              "name": "reviewers",
              "type": "address[]"
            },
            {
              "internalType": "string[]",
              "name": "reviews",
              "type": "string[]"
            }
          ],
          "internalType": "struct RealEstate.Property[]",
          "name": "",
          "type": "tuple[]"
        }
      ],
      "stateMutability": "view",
      "type": "function",
      "constant": true
    },
    {
      "inputs": [
        {
          "internalType": "uint256",
          "name": "id",
          "type": "uint256"
        }
      ],
      "name": "getProperty",
      "outputs": [
        {
          "internalType": "uint256",
          "name": "",
          "type": "uint256"
        },
        {
          "internalType": "address",
          "name": "",
          "type": "address"
        },
        {
          "internalType": "uint256",
          "name": "",
          "type": "uint256"
        },
        {
          "internalType": "string",
          "name": "",
          "type": "string"
        },
        {
          "internalType": "string",
          "name": "",
          "type": "string"
        },
        {
          "internalType": "string",
          "name": "",
          "type": "string"
        },
        {
          "internalType": "string",
          "name": "",
          "type": "string"
        },
        {
          "internalType": "string",
          "name": "",
          "type": "string"
        },
        {
          "internalType": "address[]",
          "name": "",
          "type": "address[]"
        },
        {
          "internalType": "string[]",
          "name": "",
          "type": "string[]"
        }
      ],
      "stateMutability": "view",
      "type": "function",
      "constant": true
    },
    {
      "inputs": [
        {
          "internalType": "address",
          "name": "user",
          "type": "address"
        }
      ],
      "name": "getUserProperties",
      "outputs": [
        {
          "components": [
            {
              "internalType": "uint256",
              "name": "productID",
              "type": "uint256"
            },
            {
              "internalType": "address",
              "name": "owner",
              "type": "address"
            },
            {
              "internalType": "uint256",
              "name": "price",
              "type": "uint256"
            },
            {
              "internalType": "string",
              "name": "propertyTitle",
              "type": "string"
            },
            {
              "internalType": "string",
              "name": "category",
              "type": "string"
            },
            {
              "internalType": "string",
              "name": "images",
              "type": "string"
            },
            {
              "internalType": "string",
              "name": "propertyAddress",
              "type": "string"
            },
            {
              "internalType": "string",
              "name": "description",
              "type": "string"
            },
            {
              "internalType": "address[]",
              "name": "reviewers",
              "type": "address[]"
            },
            {
              "internalType": "string[]",
              "name": "reviews",
              "type": "string[]"
            }
          ],
          "internalType": "struct RealEstate.Property[]",
          "name": "",
          "type": "tuple[]"
        }
      ],
      "stateMutability": "view",
      "type": "function",
      "constant": true
    },
    {
      "inputs": [
        {
          "internalType": "uint256",
          "name": "productId",
          "type": "uint256"
        },
        {
          "internalType": "uint256",
          "name": "rating",
          "type": "uint256"
        },
        {
          "internalType": "string",
          "name": "comment",
          "type": "string"
        },
        {
          "internalType": "address",
          "name": "user",
          "type": "address"
        }
      ],
      "name": "addReview",
      "outputs": [],
      "stateMutability": "nonpayable",
      "type": "function"
    },
    {
      "inputs": [
        {
          "internalType": "uint256",
          "name": "productId",
          "type": "uint256"
        }
      ],
      "name": "getProductReviews",
      "outputs": [
        {
          "components": [
            {
              "internalType": "address",
              "name": "reviewer",
              "type": "address"
            },
            {
              "internalType": "uint256",
              "name": "productId",
              "type": "uint256"
            },
            {
              "internalType": "uint256",
              "name": "rating",
              "type": "uint256"
            },
            {
              "internalType": "string",
              "name": "comment",
              "type": "string"
            },
            {
              "internalType": "uint256",
              "name": "likes",
              "type": "uint256"
            }
          ],
          "internalType": "struct RealEstate.Review[]",
          "name": "",
          "type": "tuple[]"
        }
      ],
      "stateMutability": "view",
      "type": "function",
      "constant": true
    },
    {
      "inputs": [
        {
          "internalType": "address",
          "name": "user",
          "type": "address"
        }
      ],
      "name": "getUserReviews",
      "outputs": [
        {
          "components": [
            {
              "internalType": "address",
              "name": "reviewer",
              "type": "address"
            },
            {
              "internalType": "uint256",
              "name": "productId",
              "type": "uint256"
            },
            {
              "internalType": "uint256",
              "name": "rating",
              "type": "uint256"
            },
            {
              "internalType": "string",
              "name": "comment",
              "type": "string"
            },
            {
              "internalType": "uint256",
              "name": "likes",
              "type": "uint256"
            }
          ],
          "internalType": "struct RealEstate.Review[]",
          "name": "",
          "type": "tuple[]"
        }
      ],
      "stateMutability": "view",
      "type": "function",
      "constant": true
    },
    {
      "inputs": [
        {
          "internalType": "uint256",
          "name": "productId",
          "type": "uint256"
        },
        {
          "internalType": "uint256",
          "name": "reviewIndex",
          "type": "uint256"
        },
        {
          "internalType": "address",
          "name": "user",
          "type": "address"
        }
      ],
      "name": "likeReview",
      "outputs": [],
      "stateMutability": "nonpayable",
      "type": "function"
    },
    {
      "inputs": [],
      "name": "getHighestratedProduct",
      "outputs": [
        {
          "internalType": "uint256",
          "name": "",
          "type": "uint256"
        }
      ],
      "stateMutability": "view",
      "type": "function",
      "constant": true
    }
  ],
  "bytecode": "0x608060405234801561001057600080fd5b5033600160006101000a81548173ffffffffffffffffffffffffffffffffffffffff021916908373ffffffffffffffffffffffffffffffffffffffff160217905550613bd7806100616000396000f3fe6080604052600436106100fe5760003560e01c8063844ce56211610095578063d5f3948811610064578063d5f3948814610369578063dc035e6d14610394578063e57d6fb7146103bd578063e8a3d485146103fa578063f56720b514610425576100fe565b8063844ce562146102d0578063938e3d7b146102fb5780639e92a69414610324578063ca6445af14610340576100fe565b80633b3bfa15116100d15780633b3bfa15146101ee57806346a4237b1461022b57806357a64bde146102685780637078930814610293576100fe565b806303644bd114610103578063060a3e611461012e57806318d0e8b21461016b57806332665ffb146101a8575b600080fd5b34801561010f57600080fd5b50610118610450565b6040516101259190612dad565b60405180910390f35b34801561013a57600080fd5b5061015560048036038101906101509190612e0f565b6109e9565b6040516101629190612dad565b60405180910390f35b34801561017757600080fd5b50610192600480360381019061018d9190612e0f565b6110a3565b60405161019f9190612f74565b60405180910390f35b3480156101b457600080fd5b506101cf60048036038101906101ca9190612fc2565b611430565b6040516101e59a9998979695949392919061314c565b60405180910390f35b3480156101fa57600080fd5b506102156004803603810190610210919061334e565b611964565b604051610222919061347c565b60405180910390f35b34801561023757600080fd5b50610252600480360381019061024d9190612fc2565b611a9a565b60405161025f9190612f74565b60405180910390f35b34801561027457600080fd5b5061027d611c12565b60405161028a919061347c565b60405180910390f35b34801561029f57600080fd5b506102ba60048036038101906102b5919061334e565b611cc1565b6040516102c7919061347c565b60405180910390f35b3480156102dc57600080fd5b506102e5611e68565b6040516102f2919061347c565b60405180910390f35b34801561030757600080fd5b50610322600480360381019061031d9190613497565b611e6e565b005b61033e600480360381019061033991906134e0565b611eb8565b005b34801561034c57600080fd5b5061036760048036038101906103629190613580565b612098565b005b34801561037557600080fd5b5061037e612419565b60405161038b9190613608565b60405180910390f35b3480156103a057600080fd5b506103bb60048036038101906103b69190613623565b61243f565b005b3480156103c957600080fd5b506103e460048036038101906103df9190613676565b6124ea565b6040516103f191906136c9565b60405180910390f35b34801561040657600080fd5b5061040f6125de565b60405161041c91906136c9565b60405180910390f35b34801561043157600080fd5b5061043a61266c565b604051610447919061347c565b60405180910390f35b6060600060035490506000808267ffffffffffffffff81111561047657610475613223565b5b6040519080825280602002602001820160405280156104af57816020015b61049c6127ac565b8152602001906001900390816104945790505b50905060005b838110156109df5760006001826104cc919061371a565b905060006002600083815260200190815260200160002090508060405180610140016040529081600082015481526020016001820160009054906101000a900473ffffffffffffffffffffffffffffffffffffffff1673ffffffffffffffffffffffffffffffffffffffff1673ffffffffffffffffffffffffffffffffffffffff1681526020016002820154815260200160038201805461056c9061379f565b80601f01602080910402602001604051908101604052809291908181526020018280546105989061379f565b80156105e55780601f106105ba576101008083540402835291602001916105e5565b820191906000526020600020905b8154815290600101906020018083116105c857829003601f168201915b505050505081526020016004820180546105fe9061379f565b80601f016020809104026020016040519081016040528092919081815260200182805461062a9061379f565b80156106775780601f1061064c57610100808354040283529160200191610677565b820191906000526020600020905b81548152906001019060200180831161065a57829003601f168201915b505050505081526020016005820180546106909061379f565b80601f01602080910402602001604051908101604052809291908181526020018280546106bc9061379f565b80156107095780601f106106de57610100808354040283529160200191610709565b820191906000526020600020905b8154815290600101906020018083116106ec57829003601f168201915b505050505081526020016006820180546107229061379f565b80601f016020809104026020016040519081016040528092919081815260200182805461074e9061379f565b801561079b5780601f106107705761010080835404028352916020019161079b565b820191906000526020600020905b81548152906001019060200180831161077e57829003601f168201915b505050505081526020016007820180546107b49061379f565b80601f01602080910402602001604051908101604052809291908181526020018280546107e09061379f565b801561082d5780601f106108025761010080835404028352916020019161082d565b820191906000526020600020905b81548152906001019060200180831161081057829003601f168201915b50505050508152602001600882018054806020026020016040519081016040528092919081815260200182805480156108bb57602002820191906000526020600020905b8160009054906101000a900473ffffffffffffffffffffffffffffffffffffffff1673ffffffffffffffffffffffffffffffffffffffff1681526020019060010190808311610871575b5050505050815260200160098201805480602002602001604051908101604052809291908181526020016000905b828210156109955783829060005260206000200180546109089061379f565b80601f01602080910402602001604051908101604052809291908181526020018280546109349061379f565b80156109815780601f1061095657610100808354040283529160200191610981565b820191906000526020600020905b81548152906001019060200180831161096457829003601f168201915b5050505050815260200190600101906108e9565b50505050815250508486815181106109b0576109af6137d1565b5b60200260200101819052506001856109c8919061371a565b9450505080806109d790613800565b9150506104b5565b5080935050505090565b60606000600354905060008060005b83811015610a99578573ffffffffffffffffffffffffffffffffffffffff1660026000600184610a28919061371a565b815260200190815260200160002060010160009054906101000a900473ffffffffffffffffffffffffffffffffffffffff1673ffffffffffffffffffffffffffffffffffffffff161415610a8657600183610a83919061371a565b92505b8080610a9190613800565b9150506109f8565b5060008267ffffffffffffffff811115610ab657610ab5613223565b5b604051908082528060200260200182016040528015610aef57816020015b610adc6127ac565b815260200190600190039081610ad45790505b50905060005b84811015611096578673ffffffffffffffffffffffffffffffffffffffff1660026000600184610b25919061371a565b815260200190815260200160002060010160009054906101000a900473ffffffffffffffffffffffffffffffffffffffff1673ffffffffffffffffffffffffffffffffffffffff161415611083576000600182610b82919061371a565b905060006002600083815260200190815260200160002090508060405180610140016040529081600082015481526020016001820160009054906101000a900473ffffffffffffffffffffffffffffffffffffffff1673ffffffffffffffffffffffffffffffffffffffff1673ffffffffffffffffffffffffffffffffffffffff16815260200160028201548152602001600382018054610c229061379f565b80601f0160208091040260200160405190810160405280929190818152602001828054610c4e9061379f565b8015610c9b5780601f10610c7057610100808354040283529160200191610c9b565b820191906000526020600020905b815481529060010190602001808311610c7e57829003601f168201915b50505050508152602001600482018054610cb49061379f565b80601f0160208091040260200160405190810160405280929190818152602001828054610ce09061379f565b8015610d2d5780601f10610d0257610100808354040283529160200191610d2d565b820191906000526020600020905b815481529060010190602001808311610d1057829003601f168201915b50505050508152602001600582018054610d469061379f565b80601f0160208091040260200160405190810160405280929190818152602001828054610d729061379f565b8015610dbf5780601f10610d9457610100808354040283529160200191610dbf565b820191906000526020600020905b815481529060010190602001808311610da257829003601f168201915b50505050508152602001600682018054610dd89061379f565b80601f0160208091040260200160405190810160405280929190818152602001828054610e049061379f565b8015610e515780601f10610e2657610100808354040283529160200191610e51565b820191906000526020600020905b815481529060010190602001808311610e3457829003601f168201915b50505050508152602001600782018054610e6a9061379f565b80601f0160208091040260200160405190810160405280929190818152602001828054610e969061379f565b8015610ee35780601f10610eb857610100808354040283529160200191610ee3565b820191906000526020600020905b815481529060010190602001808311610ec657829003601f168201915b5050505050815260200160088201805480602002602001604051908101604052809291908181526020018280548015610f7157602002820191906000526020600020905b8160009054906101000a900473ffffffffffffffffffffffffffffffffffffffff1673ffffffffffffffffffffffffffffffffffffffff1681526020019060010190808311610f27575b5050505050815260200160098201805480602002602001604051908101604052809291908181526020016000905b8282101561104b578382906000526020600020018054610fbe9061379f565b80601f0160208091040260200160405190810160405280929190818152602001828054610fea9061379f565b80156110375780601f1061100c57610100808354040283529160200191611037565b820191906000526020600020905b81548152906001019060200180831161101a57829003601f168201915b505050505081526020019060010190610f9f565b5050505081525050848681518110611066576110656137d1565b5b602002602001018190525060018561107e919061371a565b945050505b808061108e90613800565b915050610af5565b5080945050505050919050565b60606000600560008473ffffffffffffffffffffffffffffffffffffffff1673ffffffffffffffffffffffffffffffffffffffff16815260200190815260200160002080549050905060008167ffffffffffffffff81111561110857611107613223565b5b60405190808252806020026020018201604052801561114157816020015b61112e612815565b8152602001906001900390816111265790505b50905060005b600560008673ffffffffffffffffffffffffffffffffffffffff1673ffffffffffffffffffffffffffffffffffffffff16815260200190815260200160002080549050811015611425576000600560008773ffffffffffffffffffffffffffffffffffffffff1673ffffffffffffffffffffffffffffffffffffffff16815260200190815260200160002082815481106111e4576111e36137d1565b5b90600052602060002001549050600060046000838152602001908152602001600020805480602002602001604051908101604052809291908181526020016000905b8282101561135e57838290600052602060002090600502016040518060a00160405290816000820160009054906101000a900473ffffffffffffffffffffffffffffffffffffffff1673ffffffffffffffffffffffffffffffffffffffff1673ffffffffffffffffffffffffffffffffffffffff16815260200160018201548152602001600282015481526020016003820180546112c39061379f565b80601f01602080910402602001604051908101604052809291908181526020018280546112ef9061379f565b801561133c5780601f106113115761010080835404028352916020019161133c565b820191906000526020600020905b81548152906001019060200180831161131f57829003601f168201915b5050505050815260200160048201548152505081526020019060010190611226565b50505050905060005b815181101561140f578773ffffffffffffffffffffffffffffffffffffffff1682828151811061139a576113996137d1565b5b60200260200101516000015173ffffffffffffffffffffffffffffffffffffffff1614156113fc578181815181106113d5576113d46137d1565b5b60200260200101518585815181106113f0576113ef6137d1565b5b60200260200101819052505b808061140790613800565b915050611367565b505050808061141d90613800565b915050611147565b508092505050919050565b600080600060608060608060608060606000600260008d815260200190815260200160002060405180610140016040529081600082015481526020016001820160009054906101000a900473ffffffffffffffffffffffffffffffffffffffff1673ffffffffffffffffffffffffffffffffffffffff1673ffffffffffffffffffffffffffffffffffffffff168152602001600282015481526020016003820180546114db9061379f565b80601f01602080910402602001604051908101604052809291908181526020018280546115079061379f565b80156115545780601f1061152957610100808354040283529160200191611554565b820191906000526020600020905b81548152906001019060200180831161153757829003601f168201915b5050505050815260200160048201805461156d9061379f565b80601f01602080910402602001604051908101604052809291908181526020018280546115999061379f565b80156115e65780601f106115bb576101008083540402835291602001916115e6565b820191906000526020600020905b8154815290600101906020018083116115c957829003601f168201915b505050505081526020016005820180546115ff9061379f565b80601f016020809104026020016040519081016040528092919081815260200182805461162b9061379f565b80156116785780601f1061164d57610100808354040283529160200191611678565b820191906000526020600020905b81548152906001019060200180831161165b57829003601f168201915b505050505081526020016006820180546116919061379f565b80601f01602080910402602001604051908101604052809291908181526020018280546116bd9061379f565b801561170a5780601f106116df5761010080835404028352916020019161170a565b820191906000526020600020905b8154815290600101906020018083116116ed57829003601f168201915b505050505081526020016007820180546117239061379f565b80601f016020809104026020016040519081016040528092919081815260200182805461174f9061379f565b801561179c5780601f106117715761010080835404028352916020019161179c565b820191906000526020600020905b81548152906001019060200180831161177f57829003601f168201915b505050505081526020016008820180548060200260200160405190810160405280929190818152602001828054801561182a57602002820191906000526020600020905b8160009054906101000a900473ffffffffffffffffffffffffffffffffffffffff1673ffffffffffffffffffffffffffffffffffffffff16815260200190600101908083116117e0575b5050505050815260200160098201805480602002602001604051908101604052809291908181526020016000905b828210156119045783829060005260206000200180546118779061379f565b80601f01602080910402602001604051908101604052809291908181526020018280546118a39061379f565b80156118f05780601f106118c5576101008083540402835291602001916118f0565b820191906000526020600020905b8154815290600101906020018083116118d357829003601f168201915b505050505081526020019060010190611858565b50505050815250509050806000015181602001518260400151836060015184608001518560a001518660c001518760e001518861010001518961012001519a509a509a509a509a509a509a509a509a509a50509193959799509193959799565b6000806002600089815260200190815260200160002090508873ffffffffffffffffffffffffffffffffffffffff168160010160009054906101000a900473ffffffffffffffffffffffffffffffffffffffff1673ffffffffffffffffffffffffffffffffffffffff1614611a0e576040517f08c379a0000000000000000000000000000000000000000000000000000000008152600401611a0590613895565b60405180910390fd5b86816003019080519060200190611a2692919061285a565b5085816004019080519060200190611a3f92919061285a565b5084816005019080519060200190611a5892919061285a565b5083816006019080519060200190611a7192919061285a565b5082816007019080519060200190611a8a92919061285a565b5087915050979650505050505050565b606060046000838152602001908152602001600020805480602002602001604051908101604052809291908181526020016000905b82821015611c0757838290600052602060002090600502016040518060a00160405290816000820160009054906101000a900473ffffffffffffffffffffffffffffffffffffffff1673ffffffffffffffffffffffffffffffffffffffff1673ffffffffffffffffffffffffffffffffffffffff1681526020016001820154815260200160028201548152602001600382018054611b6c9061379f565b80601f0160208091040260200160405190810160405280929190818152602001828054611b989061379f565b8015611be55780601f10611bba57610100808354040283529160200191611be5565b820191906000526020600020905b815481529060010190602001808311611bc857829003601f168201915b5050505050815260200160048201548152505081526020019060010190611acf565b505050509050919050565b600080600090506000805b600754811015611cb8576000600182611c36919061371a565b9050600060066000838152602001908152602001600020600201541115611ca457600060066000838152602001908152602001600020600201546006600084815260200190815260200160002060010154611c9191906138e4565b905084811115611ca2578094508193505b505b508080611cb090613800565b915050611c1d565b50809250505090565b6000808711611d05576040517f08c379a0000000000000000000000000000000000000000000000000000000008152600401611cfc90613961565b60405180910390fd5b600060036000815480929190611d1a90613800565b9190505590506000600260008381526020019081526020016000209050818160000181905550898160010160006101000a81548173ffffffffffffffffffffffffffffffffffffffff021916908373ffffffffffffffffffffffffffffffffffffffff16021790555088816002018190555087816003019080519060200190611da492919061285a565b5086816004019080519060200190611dbd92919061285a565b5085816005019080519060200190611dd692919061285a565b5084816006019080519060200190611def92919061285a565b5083816007019080519060200190611e0892919061285a565b508973ffffffffffffffffffffffffffffffffffffffff16827f23fb658c1698b92f5fe511a079c17ecf7965cbc3f1b873328c67e2c3c0820f1f8b604051611e50919061347c565b60405180910390a38192505050979650505050505050565b60075481565b611e76612672565b611eac576040517f9f7f092500000000000000000000000000000000000000000000000000000000815260040160405180910390fd5b611eb5816126ca565b50565b60003490506002600084815260200190815260200160002060020154811015611f16576040517f08c379a0000000000000000000000000000000000000000000000000000000008152600401611f0d906139cd565b60405180910390fd5b600060026000858152602001908152602001600020905060008160010160009054906101000a900473ffffffffffffffffffffffffffffffffffffffff1673ffffffffffffffffffffffffffffffffffffffff1683604051611f7790613a1e565b60006040518083038185875af1925050503d8060008114611fb4576040519150601f19603f3d011682016040523d82523d6000602084013e611fb9565b606091505b50509050801561209157838260010160006101000a81548173ffffffffffffffffffffffffffffffffffffffff021916908373ffffffffffffffffffffffffffffffffffffffff1602179055508373ffffffffffffffffffffffffffffffffffffffff168260010160009054906101000a900473ffffffffffffffffffffffffffffffffffffffff1673ffffffffffffffffffffffffffffffffffffffff16867fddd64180d9701c7ede08673ac8106484ff983a472929330d4fbde4e35d65cb0686604051612088919061347c565b60405180910390a45b5050505050565b600184101580156120aa575060058411155b6120e9576040517f08c379a00000000000000000000000000000000000000000000000000000000081526004016120e090613a7f565b60405180910390fd5b600060026000878152602001908152602001600020905080600801829080600181540180825580915050600190039060005260206000200160009091909190916101000a81548173ffffffffffffffffffffffffffffffffffffffff021916908373ffffffffffffffffffffffffffffffffffffffff160217905550806009018484909180600181540180825580915050600190039060005260206000200160009091929091929091929091925091906121a49291906128e0565b50600460008781526020019081526020016000206040518060a001604052808473ffffffffffffffffffffffffffffffffffffffff16815260200188815260200187815260200186868080601f016020809104026020016040519081016040528093929190818152602001838380828437600081840152601f19601f8201169050808301925050505050505081526020016000815250908060018154018082558091505060019003906000526020600020906005020160009091909190915060008201518160000160006101000a81548173ffffffffffffffffffffffffffffffffffffffff021916908373ffffffffffffffffffffffffffffffffffffffff160217905550602082015181600101556040820151816002015560608201518160030190805190602001906122da92919061285a565b50608082015181600401555050600560008373ffffffffffffffffffffffffffffffffffffffff1673ffffffffffffffffffffffffffffffffffffffff16815260200190815260200160002086908060018154018082558091505060019003906000526020600020016000909190919091505584600660008881526020019081526020016000206001016000828254612373919061371a565b925050819055506006600087815260200190815260200160002060020160008154809291906123a190613800565b91905055508173ffffffffffffffffffffffffffffffffffffffff16867f4beb3faed0901f48c8eaa53db80247f723ddeb08676b6badb9ee2f191d1ac2df8787876040516123f193929190613acc565b60405180910390a36007600081548092919061240c90613800565b9190505550505050505050565b600160009054906101000a900473ffffffffffffffffffffffffffffffffffffffff1681565b6000600460008581526020019081526020016000208381548110612466576124656137d1565b5b9060005260206000209060050201905080600401600081548092919061248b90613800565b91905055508173ffffffffffffffffffffffffffffffffffffffff1683857fc58deae63c2d94e1502a392380f59901dc4cd3c3bbc40308b6189decf09671d584600401546040516124dc919061347c565b60405180910390a450505050565b606060006002600085815260200190815260200160002090508473ffffffffffffffffffffffffffffffffffffffff168160010160009054906101000a900473ffffffffffffffffffffffffffffffffffffffff1673ffffffffffffffffffffffffffffffffffffffff1614612595576040517f08c379a000000000000000000000000000000000000000000000000000000000815260040161258c90613b4a565b60405180910390fd5b8281600201819055506040518060400160405280601e81526020017f596f75722070726f7065727479207072696365206973207570646174656400008152509150509392505050565b600080546125eb9061379f565b80601f01602080910402602001604051908101604052809291908181526020018280546126179061379f565b80156126645780601f1061263957610100808354040283529160200191612664565b820191906000526020600020905b81548152906001019060200180831161264757829003601f168201915b505050505081565b60035481565b6000600160009054906101000a900473ffffffffffffffffffffffffffffffffffffffff1673ffffffffffffffffffffffffffffffffffffffff163373ffffffffffffffffffffffffffffffffffffffff1614905090565b60008080546126d89061379f565b80601f01602080910402602001604051908101604052809291908181526020018280546127049061379f565b80156127515780601f1061272657610100808354040283529160200191612751565b820191906000526020600020905b81548152906001019060200180831161273457829003601f168201915b50505050509050816000908051906020019061276e92919061285a565b507fc9c7c3fe08b88b4df9d4d47ef47d2c43d55c025a0ba88ca442580ed9e7348a1681836040516127a0929190613b6a565b60405180910390a15050565b60405180610140016040528060008152602001600073ffffffffffffffffffffffffffffffffffffffff16815260200160008152602001606081526020016060815260200160608152602001606081526020016060815260200160608152602001606081525090565b6040518060a00160405280600073ffffffffffffffffffffffffffffffffffffffff168152602001600081526020016000815260200160608152602001600081525090565b8280546128669061379f565b90600052602060002090601f01602090048101928261288857600085556128cf565b82601f106128a157805160ff19168380011785556128cf565b828001600101855582156128cf579182015b828111156128ce5782518255916020019190600101906128b3565b5b5090506128dc9190612966565b5090565b8280546128ec9061379f565b90600052602060002090601f01602090048101928261290e5760008555612955565b82601f1061292757803560ff1916838001178555612955565b82800160010185558215612955579182015b82811115612954578235825591602001919060010190612939565b5b5090506129629190612966565b5090565b5b8082111561297f576000816000905550600101612967565b5090565b600081519050919050565b600082825260208201905092915050565b6000819050602082019050919050565b6000819050919050565b6129c2816129af565b82525050565b600073ffffffffffffffffffffffffffffffffffffffff82169050919050565b60006129f3826129c8565b9050919050565b612a03816129e8565b82525050565b600081519050919050565b600082825260208201905092915050565b60005b83811015612a43578082015181840152602081019050612a28565b83811115612a52576000848401525b50505050565b6000601f19601f8301169050919050565b6000612a7482612a09565b612a7e8185612a14565b9350612a8e818560208601612a25565b612a9781612a58565b840191505092915050565b600081519050919050565b600082825260208201905092915050565b6000819050602082019050919050565b6000612ada83836129fa565b60208301905092915050565b6000602082019050919050565b6000612afe82612aa2565b612b088185612aad565b9350612b1383612abe565b8060005b83811015612b44578151612b2b8882612ace565b9750612b3683612ae6565b925050600181019050612b17565b5085935050505092915050565b600081519050919050565b600082825260208201905092915050565b6000819050602082019050919050565b6000612b898383612a69565b905092915050565b6000602082019050919050565b6000612ba982612b51565b612bb38185612b5c565b935083602082028501612bc585612b6d565b8060005b85811015612c015784840389528151612be28582612b7d565b9450612bed83612b91565b925060208a01995050600181019050612bc9565b50829750879550505050505092915050565b600061014083016000830151612c2c60008601826129b9565b506020830151612c3f60208601826129fa565b506040830151612c5260408601826129b9565b5060608301518482036060860152612c6a8282612a69565b91505060808301518482036080860152612c848282612a69565b91505060a083015184820360a0860152612c9e8282612a69565b91505060c083015184820360c0860152612cb88282612a69565b91505060e083015184820360e0860152612cd28282612a69565b915050610100830151848203610100860152612cee8282612af3565b915050610120830151848203610120860152612d0a8282612b9e565b9150508091505092915050565b6000612d238383612c13565b905092915050565b6000602082019050919050565b6000612d4382612983565b612d4d818561298e565b935083602082028501612d5f8561299f565b8060005b85811015612d9b5784840389528151612d7c8582612d17565b9450612d8783612d2b565b925060208a01995050600181019050612d63565b50829750879550505050505092915050565b60006020820190508181036000830152612dc78184612d38565b905092915050565b6000604051905090565b600080fd5b600080fd5b612dec816129e8565b8114612df757600080fd5b50565b600081359050612e0981612de3565b92915050565b600060208284031215612e2557612e24612dd9565b5b6000612e3384828501612dfa565b91505092915050565b600081519050919050565b600082825260208201905092915050565b6000819050602082019050919050565b600060a083016000830151612e8060008601826129fa565b506020830151612e9360208601826129b9565b506040830151612ea660408601826129b9565b5060608301518482036060860152612ebe8282612a69565b9150506080830151612ed360808601826129b9565b508091505092915050565b6000612eea8383612e68565b905092915050565b6000602082019050919050565b6000612f0a82612e3c565b612f148185612e47565b935083602082028501612f2685612e58565b8060005b85811015612f625784840389528151612f438582612ede565b9450612f4e83612ef2565b925060208a01995050600181019050612f2a565b50829750879550505050505092915050565b60006020820190508181036000830152612f8e8184612eff565b905092915050565b612f9f816129af565b8114612faa57600080fd5b50565b600081359050612fbc81612f96565b92915050565b600060208284031215612fd857612fd7612dd9565b5b6000612fe684828501612fad565b91505092915050565b612ff8816129af565b82525050565b613007816129e8565b82525050565b600082825260208201905092915050565b600061302982612a09565b613033818561300d565b9350613043818560208601612a25565b61304c81612a58565b840191505092915050565b600082825260208201905092915050565b600061307382612aa2565b61307d8185613057565b935061308883612abe565b8060005b838110156130b95781516130a08882612ace565b97506130ab83612ae6565b92505060018101905061308c565b5085935050505092915050565b600082825260208201905092915050565b60006130e282612b51565b6130ec81856130c6565b9350836020820285016130fe85612b6d565b8060005b8581101561313a578484038952815161311b8582612b7d565b945061312683612b91565b925060208a01995050600181019050613102565b50829750879550505050505092915050565b600061014082019050613162600083018d612fef565b61316f602083018c612ffe565b61317c604083018b612fef565b818103606083015261318e818a61301e565b905081810360808301526131a2818961301e565b905081810360a08301526131b6818861301e565b905081810360c08301526131ca818761301e565b905081810360e08301526131de818661301e565b90508181036101008301526131f38185613068565b905081810361012083015261320881846130d7565b90509b9a5050505050505050505050565b600080fd5b600080fd5b7f4e487b7100000000000000000000000000000000000000000000000000000000600052604160045260246000fd5b61325b82612a58565b810181811067ffffffffffffffff8211171561327a57613279613223565b5b80604052505050565b600061328d612dcf565b90506132998282613252565b919050565b600067ffffffffffffffff8211156132b9576132b8613223565b5b6132c282612a58565b9050602081019050919050565b82818337600083830152505050565b60006132f16132ec8461329e565b613283565b90508281526020810184848401111561330d5761330c61321e565b5b6133188482856132cf565b509392505050565b600082601f83011261333557613334613219565b5b81356133458482602086016132de565b91505092915050565b600080600080600080600060e0888a03121561336d5761336c612dd9565b5b600061337b8a828b01612dfa565b975050602061338c8a828b01612fad565b965050604088013567ffffffffffffffff8111156133ad576133ac612dde565b5b6133b98a828b01613320565b955050606088013567ffffffffffffffff8111156133da576133d9612dde565b5b6133e68a828b01613320565b945050608088013567ffffffffffffffff81111561340757613406612dde565b5b6134138a828b01613320565b93505060a088013567ffffffffffffffff81111561343457613433612dde565b5b6134408a828b01613320565b92505060c088013567ffffffffffffffff81111561346157613460612dde565b5b61346d8a828b01613320565b91505092959891949750929550565b60006020820190506134916000830184612fef565b92915050565b6000602082840312156134ad576134ac612dd9565b5b600082013567ffffffffffffffff8111156134cb576134ca612dde565b5b6134d784828501613320565b91505092915050565b600080604083850312156134f7576134f6612dd9565b5b600061350585828601612fad565b925050602061351685828601612dfa565b9150509250929050565b600080fd5b600080fd5b60008083601f8401126135405761353f613219565b5b8235905067ffffffffffffffff81111561355d5761355c613520565b5b60208301915083600182028301111561357957613578613525565b5b9250929050565b60008060008060006080868803121561359c5761359b612dd9565b5b60006135aa88828901612fad565b95505060206135bb88828901612fad565b945050604086013567ffffffffffffffff8111156135dc576135db612dde565b5b6135e88882890161352a565b935093505060606135fb88828901612dfa565b9150509295509295909350565b600060208201905061361d6000830184612ffe565b92915050565b60008060006060848603121561363c5761363b612dd9565b5b600061364a86828701612fad565b935050602061365b86828701612fad565b925050604061366c86828701612dfa565b9150509250925092565b60008060006060848603121561368f5761368e612dd9565b5b600061369d86828701612dfa565b93505060206136ae86828701612fad565b92505060406136bf86828701612fad565b9150509250925092565b600060208201905081810360008301526136e3818461301e565b905092915050565b7f4e487b7100000000000000000000000000000000000000000000000000000000600052601160045260246000fd5b6000613725826129af565b9150613730836129af565b9250827fffffffffffffffffffffffffffffffffffffffffffffffffffffffffffffffff03821115613765576137646136eb565b5b828201905092915050565b7f4e487b7100000000000000000000000000000000000000000000000000000000600052602260045260246000fd5b600060028204905060018216806137b757607f821691505b602082108114156137cb576137ca613770565b5b50919050565b7f4e487b7100000000000000000000000000000000000000000000000000000000600052603260045260246000fd5b600061380b826129af565b91507fffffffffffffffffffffffffffffffffffffffffffffffffffffffffffffffff82141561383e5761383d6136eb565b5b600182019050919050565b7f596f7520617265206e6f7420746865206f776e65720000000000000000000000600082015250565b600061387f60158361300d565b915061388a82613849565b602082019050919050565b600060208201905081810360008301526138ae81613872565b9050919050565b7f4e487b7100000000000000000000000000000000000000000000000000000000600052601260045260246000fd5b60006138ef826129af565b91506138fa836129af565b92508261390a576139096138b5565b5b828204905092915050565b7f7072696365206d7573742062652067726561746572207468616e203000000000600082015250565b600061394b601c8361300d565b915061395682613915565b602082019050919050565b6000602082019050818103600083015261397a8161393e565b9050919050565b7f496e7375666669656369656e742046756e647300000000000000000000000000600082015250565b60006139b760138361300d565b91506139c282613981565b602082019050919050565b600060208201905081810360008301526139e6816139aa565b9050919050565b600081905092915050565b50565b6000613a086000836139ed565b9150613a13826139f8565b600082019050919050565b6000613a29826139fb565b9150819050919050565b7f526174696e67206d757374206265206265747765656e203120616e6420352e00600082015250565b6000613a69601f8361300d565b9150613a7482613a33565b602082019050919050565b60006020820190508181036000830152613a9881613a5c565b9050919050565b6000613aab838561300d565b9350613ab88385846132cf565b613ac183612a58565b840190509392505050565b6000604082019050613ae16000830186612fef565b8181036020830152613af4818486613a9f565b9050949350505050565b7f596f757220617265206e6f74206f776e65720000000000000000000000000000600082015250565b6000613b3460128361300d565b9150613b3f82613afe565b602082019050919050565b60006020820190508181036000830152613b6381613b27565b9050919050565b60006040820190508181036000830152613b84818561301e565b90508181036020830152613b98818461301e565b9050939250505056fea2646970667358221220b0c6834716581ffdde7dccadca972a9d09f5b94940248e8990c8c63a62f2cd3e64736f6c63430008090033",
  "immutableReferences": {},
  "source": "// SPDX-License-Identifier: UNLICENSED\r\npragma solidity ^0.8.9;\r\n\r\nimport \"@thirdweb-dev/contracts/extension/ContractMetadata.sol\";\r\n\r\n\r\ncontract RealEstate is ContractMetadata{\r\n\r\n    //STATE VARIABLES\r\n\r\n    address public deployer;\r\n \r\n    constructor() {\r\n        deployer = msg.sender;\r\n    }\r\n\r\n    function _canSetContractURI() internal view virtual override returns (bool){\r\n        return msg.sender == deployer;\r\n    }\r\n\r\n    struct Property{\r\n        uint256 productID;\r\n        address owner;\r\n        uint256 price;\r\n        string propertyTitle;\r\n        string category;\r\n        string images;\r\n        string propertyAddress;\r\n        string description;\r\n        address[] reviewers;\r\n        string[] reviews;\r\n    }\r\n\r\n\r\n    mapping(uint256 => Property)private properties;\r\n    uint256 public propertyIndex;\r\n\r\n    //Events\r\n    event PropertyListed(uint256 indexed id,address indexed owner,uint256 price);\r\n\r\n    event PropertySold(uint256 indexed id,address indexed oldOwner,address indexed newOwner,uint256 price);\r\n\r\n    event PropertyResold(uint256 indexed id,address indexed oldOwner,address indexed newOwner,uint256 price);\r\n\r\n    //REVIEWSECTION\r\n\r\n    struct Review{\r\n        address reviewer;\r\n        uint256 productId;\r\n        uint256 rating;\r\n        string comment;\r\n        uint256 likes;\r\n    }\r\n\r\n\r\n    struct Product{\r\n        uint256 productId;\r\n        uint256 totalRating;\r\n        uint256 numReviews;\r\n    }\r\n\r\n    mapping(uint256 => Review[])private reviews;\r\n    mapping(address => uint256[])private userReviews;\r\n    mapping(uint256 => Product)private products;\r\n\r\n\r\n    uint256 public reviewsCounter;\r\n\r\n    event ReviewAdded(uint256 indexed productId,address indexed reviewer,uint256 rating,string comment);\r\n    event ReviewLiked(uint256 indexed productId,uint256 indexed reviewIndex,address indexed liker,uint256 likes);\r\n    \r\n    //BASE FUNCTIONS\r\n\r\n\r\n    function listProperty(address owner,uint256 price,string memory _propertyTitle,string memory _category,string memory _images,string memory _propertyAddress,string memory _description) external returns(uint256){\r\n\r\n       require(price > 0,\"price must be greater than 0\");\r\n\r\n       uint256 productId=propertyIndex++;\r\n       Property storage property = properties[productId];\r\n\r\n       property.productID = productId;\r\n       property.owner=owner;\r\n       property.price=price;\r\n       property.propertyTitle=_propertyTitle;\r\n       property.category=_category;\r\n       property.images=_images;\r\n       property.propertyAddress=_propertyAddress;\r\n       property.description=_description;\r\n\r\n       emit PropertyListed(productId,owner,price);\r\n\r\n       return productId;\r\n\r\n    }\r\n\r\n\r\n    function updateProperty(address owner,uint256 productId,string memory _propertyTitle,string memory _category,string memory _images,string memory _propertyAddress,string memory _description) external returns(uint256){\r\n\r\n     Property storage property=properties[productId];\r\n\r\n     require(property.owner == owner,\"You are not the owner\");\r\n\r\n     property.propertyTitle=_propertyTitle;\r\n     property.category=_category;\r\n     property.images=_images;\r\n     property.propertyAddress=_propertyAddress;\r\n     property.description=_description;\r\n      \r\n\r\n      return productId;\r\n    }\r\n\r\n    function updatePrice(address owner,uint256 productId,uint256 price)external returns(string memory){\r\n\r\n        Property storage property=properties[productId];\r\n\r\n        require(property.owner == owner ,\"Your are not owner\");\r\n\r\n        property.price=price;\r\n\r\n        return \"Your property price is updated\";\r\n    }\r\n\r\n\r\n\r\n   function buyProperty(uint256 id,address buyer) external payable{\r\n\r\n        uint256 amount=msg.value;\r\n\r\n        require(amount>=properties[id].price,\"Insuffiecient Funds\");\r\n\r\n        Property storage property=properties[id];\r\n\r\n        (bool sent, ) = payable(property.owner).call{value: amount}(\"\");\r\n\r\n        if (sent) {\r\n            property.owner = buyer;\r\n            emit PropertySold(id, property.owner, buyer, amount);\r\n        }\r\n    }\r\n\r\n\r\n\r\n    function getAllProperty() public view returns(Property[] memory){\r\n        uint256 itemCount = propertyIndex;\r\n        uint256 currentIndex = 0;\r\n\r\n        Property[] memory items = new Property[](itemCount);\r\n        for (uint256 i = 0; i < itemCount; i++) {\r\n            uint256 currentId = i + 1;\r\n            Property storage currentItem = properties[currentId];\r\n            items[currentIndex] = currentItem;\r\n            currentIndex += 1;\r\n        }\r\n        return items;\r\n    }\r\n\r\n\r\n\r\n    function getProperty(uint256 id) external view returns(uint256,address,uint256,string memory,string memory,string memory,string memory,string memory,address[] memory,string[] memory){\r\n\r\n        Property memory property = properties[id];\r\n        return (\r\n            property.productID,\r\n            property.owner,\r\n            property.price,\r\n            property.propertyTitle,\r\n            property.category,\r\n            property.images,\r\n            property.propertyAddress,\r\n            property.description,\r\n            property.reviewers,\r\n            property.reviews\r\n        );\r\n\r\n    }\r\n\r\n\r\n\r\n    function getUserProperties(address user) external view returns(Property[] memory){\r\n\r\n        uint256 totalItemCount = propertyIndex;\r\n        uint256 itemCount = 0;\r\n        uint256 currentIndex = 0;\r\n        for (uint256 i = 0; i < totalItemCount; i++) {\r\n            if (properties[i + 1].owner == user) {\r\n                itemCount += 1;\r\n            }\r\n        }\r\n\r\n        Property[] memory items = new Property[](itemCount);\r\n        for (uint256 i = 0; i < totalItemCount; i++) {\r\n            if (properties[i + 1].owner == user) {\r\n                uint256 currentId = i + 1;\r\n                Property storage currentItem = properties[currentId];\r\n                items[currentIndex] = currentItem;\r\n                currentIndex += 1;\r\n            }\r\n        }\r\n        return items;\r\n    }\r\n\r\n\r\n\r\n    //REVIEW FUNCTIONS\r\n\r\n    function addReview(uint256 productId,uint256 rating,string calldata comment,address user) external{\r\n\r\n        require(rating >= 1 && rating <= 5, \"Rating must be between 1 and 5.\");\r\n        //PROPERTY\r\n        Property storage property = properties[productId];\r\n\r\n        property.reviewers.push(user);\r\n        property.reviews.push(comment);\r\n\r\n        //REVIEW\r\n        reviews[productId].push(Review(user, productId, rating, comment, 0));\r\n        userReviews[user].push(productId);\r\n        products[productId].totalRating += rating;\r\n        products[productId].numReviews++;\r\n\r\n        emit ReviewAdded(productId, user, rating, comment);\r\n\r\n        reviewsCounter++;\r\n    }\r\n\r\n\r\n    function getProductReviews(uint256 productId) external view returns(Review[] memory){\r\n        return reviews[productId];\r\n    }\r\n\r\n\r\n\r\n    function getUserReviews(address user) external view returns(Review[] memory){\r\n\r\n        uint256 totalReviews = userReviews[user].length;\r\n        Review[] memory userProductReviews = new Review[](totalReviews);\r\n        for (uint256 i = 0; i < userReviews[user].length; i++) {\r\n            uint256 productId = userReviews[user][i];\r\n            Review[] memory productReviews = reviews[productId];\r\n            for (uint256 j = 0; j < productReviews.length; j++) {\r\n                if (productReviews[j].reviewer == user) {\r\n                    userProductReviews[i] = productReviews[j];\r\n                }\r\n            }\r\n        }\r\n        return userProductReviews;\r\n    }\r\n\r\n\r\n\r\n    function likeReview(uint256 productId,uint256 reviewIndex,address user) external{\r\n\r\n        Review storage review = reviews[productId][reviewIndex];\r\n        review.likes++;\r\n        emit ReviewLiked(productId, reviewIndex, user, review.likes);\r\n    }\r\n\r\n\r\n\r\n\r\n    function getHighestratedProduct() external view returns(uint256){\r\n\r\n        uint256 highestRating = 0;\r\n        uint256 highestRatedProductId = 0;\r\n        for (uint256 i = 0; i < reviewsCounter; i++) {\r\n            uint256 productId = i + 1;\r\n            if (products[productId].numReviews > 0) {\r\n                uint256 avgRating = products[productId].totalRating /\r\n                    products[productId].numReviews;\r\n                if (avgRating > highestRating) {\r\n                    highestRating = avgRating;\r\n                    highestRatedProductId = productId;\r\n                }\r\n            }\r\n        }\r\n        return highestRatedProductId;\r\n    }\r\n\r\n\r\n}",
  "sourcePath": "D:\\Real-Estate-Dapp\\backend\\contracts\\RealEstate.sol",
  "compiler": {
    "name": "solc",
    "version": "0.8.9+commit.e5eed63a.Emscripten.clang"
  },
  "schemaVersion": "3.4.16",
  "updatedAt": "2024-12-21T05:42:08.673Z",
  "networkType": "ethereum",
  "devdoc": {
    "errors": {
      "ContractMetadataUnauthorized()": [
        {
          "details": "The sender is not authorized to perform the action"
        }
      ]
    },
    "kind": "dev",
    "methods": {
      "setContractURI(string)": {
        "details": "Caller should be authorized to setup contractURI, e.g. contract admin.                  See {_canSetContractURI}.                  Emits {ContractURIUpdated Event}.",
        "params": {
          "_uri": "keccak256 hash of the role. e.g. keccak256(\"TRANSFER_ROLE\")"
        }
      }
    },
    "version": 1
  },
  "userdoc": {
    "kind": "user",
    "methods": {
      "contractURI()": {
        "notice": "Returns the contract metadata URI."
      },
      "setContractURI(string)": {
        "notice": "Lets a contract admin set the URI for contract-level metadata."
      }
    },
    "version": 1
  }
}